{
    "contractName": "FundMe",
    "abi": [
        {
            "inputs": [
                {
                    "internalType": "address",
                    "name": "priceFeed",
                    "type": "address"
                }
            ],
            "stateMutability": "nonpayable",
            "type": "constructor"
        },
        {
            "inputs": [],
            "name": "FundMe__NotOwner",
            "type": "error"
        },
        {
            "inputs": [],
            "name": "MINIMUM_USD",
            "outputs": [
                {
                    "internalType": "uint256",
                    "name": "",
                    "type": "uint256"
                }
            ],
            "stateMutability": "view",
            "type": "function"
        },
        {
            "inputs": [],
            "name": "cheaperWithdraw",
            "outputs": [],
            "stateMutability": "nonpayable",
            "type": "function"
        },
        {
            "inputs": [],
            "name": "fund",
            "outputs": [],
            "stateMutability": "payable",
            "type": "function"
        },
        {
            "inputs": [
                {
                    "internalType": "address",
                    "name": "fundingAddress",
                    "type": "address"
                }
            ],
            "name": "getAddressToAmountFunded",
            "outputs": [
                {
                    "internalType": "uint256",
                    "name": "",
                    "type": "uint256"
                }
            ],
            "stateMutability": "view",
            "type": "function"
        },
        {
            "inputs": [
                {
                    "internalType": "uint256",
                    "name": "index",
                    "type": "uint256"
                }
            ],
            "name": "getFunder",
            "outputs": [
                {
                    "internalType": "address",
                    "name": "",
                    "type": "address"
                }
            ],
            "stateMutability": "view",
            "type": "function"
        },
        {
            "inputs": [],
            "name": "getOwner",
            "outputs": [
                {
                    "internalType": "address",
                    "name": "",
                    "type": "address"
                }
            ],
            "stateMutability": "view",
            "type": "function"
        },
        {
            "inputs": [],
            "name": "getPriceFeed",
            "outputs": [
                {
                    "internalType": "contract AggregatorV3Interface",
                    "name": "",
                    "type": "address"
                }
            ],
            "stateMutability": "view",
            "type": "function"
        },
        {
            "inputs": [],
            "name": "getVersion",
            "outputs": [
                {
                    "internalType": "uint256",
                    "name": "",
                    "type": "uint256"
                }
            ],
            "stateMutability": "view",
            "type": "function"
        },
        {
            "inputs": [],
            "name": "withdraw",
            "outputs": [],
            "stateMutability": "nonpayable",
            "type": "function"
        }
    ],
    "bytecode": "60a03461008e57601f61081738819003918201601f19168301916001600160401b038311848410176100925780849260209460405283398101031261008e57516001600160a01b0381169081900361008e57600280546001600160a01b0319169190911790553360805260405161077090816100a7823960805181818160cc0152818161043b015261049e0152f35b5f80fd5b634e487b7160e01b5f52604160045260245ffdfe6080806040526004361015610012575f80fd5b5f3560e01c9081630343fb251461063f575080630d8e6e2c146105be5780633ccfd60b1461048c5780636b69a5921461046a578063893d20e8146104265780639e87a5cd146103fe578063b60d42881461026c578063be2693f0146100ba5763d7b4750c1461007f575f80fd5b346100b65760203660031901126100b657602061009d60043561069a565b905460405160039290921b1c6001600160a01b03168152f35b5f80fd5b346100b6575f3660031901126100b6577f00000000000000000000000000000000000000000000000000000000000000006001600160a01b038116330361025d57604051808160205f5492838152015f80525f51602061071b5f395f51905f52925f5b81811061023b57505061013292500382610678565b5f5b815181101561016357600190818060a01b0360208260051b85010151165f52816020525f604081205501610134565b82602060405190610175602083610678565b5f82525f36813781519167ffffffffffffffff831161022757600160401b831161022757825f54815f558082106101f9575b5050602001905f80525f5b8381106101d1575f80808047895af16101c96106c4565b50156100b657005b82516001600160a01b03165f51602061071b5f395f51905f52820155918101916001016101b2565b035f5b81811061020b578491506101a7565b5f8582015f51602061071b5f395f51905f5201556001016101fc565b634e487b7160e01b5f52604160045260245ffd5b84546001600160a01b031683526001948501948694506020909301920161011d565b63579610db60e01b5f5260045ffd5b5f3660031901126100b657600254604051633fabe5a360e21b81529060a090829060049082906001600160a01b03165afa9081156103f3575f916103a6575b506402540be4008102908082056402540be400148115171561034d576402540be400903402029080820434149015171561034d57670de0b6b3a7640000674563918244f4000091041061036157335f52600160205260405f2080549034820180921161034d57555f54600160401b8110156102275780600161032f92015f5561069a565b81546001600160a01b0360039290921b91821b19163390911b179055005b634e487b7160e01b5f52601160045260245ffd5b60405162461bcd60e51b815260206004820152601b60248201527f596f75206e65656420746f207370656e64206d6f7265204554482100000000006044820152606490fd5b905060a0813d60a0116103eb575b816103c160a09383610678565b810103126100b6576103d281610703565b506103e4608060208301519201610703565b50816102ab565b3d91506103b4565b6040513d5f823e3d90fd5b346100b6575f3660031901126100b6576002546040516001600160a01b039091168152602090f35b346100b6575f3660031901126100b6576040517f00000000000000000000000000000000000000000000000000000000000000006001600160a01b03168152602090f35b346100b6575f3660031901126100b6576020604051674563918244f400008152f35b346100b6575f3660031901126100b6577f00000000000000000000000000000000000000000000000000000000000000006001600160a01b038116330361025d575f5b5f5481101561050457806104e460019261069a565b838060a01b0391549060031b1c165f52816020525f6040812055016104cf565b5060405160206105148183610678565b5f82525f36813781519167ffffffffffffffff831161022757600160401b831161022757825f54815f55808210610590575b5050602001905f80525f5b838110610568575f80808047895af16101c96106c4565b82516001600160a01b03165f51602061071b5f395f51905f5282015591810191600101610551565b035f5b8181106105a257849150610546565b5f8582015f51602061071b5f395f51905f520155600101610593565b346100b6575f3660031901126100b65760025460405163054fd4d560e41b815290602090829060049082906001600160a01b03165afa80156103f3575f9061060c575b602090604051908152f35b506020813d602011610637575b8161062660209383610678565b810103126100b65760209051610601565b3d9150610619565b346100b65760203660031901126100b6576004356001600160a01b03811691908290036100b6576020915f526001825260405f20548152f35b90601f8019910116810190811067ffffffffffffffff82111761022757604052565b5f548110156106b0575f805260205f2001905f90565b634e487b7160e01b5f52603260045260245ffd5b3d156106fe573d9067ffffffffffffffff821161022757604051916106f3601f8201601f191660200184610678565b82523d5f602084013e565b606090565b519069ffffffffffffffffffff821682036100b65756fe290decd9548b62a8d60345a988386fc84ba6bc95484008f6362f93160ef3e563a2646970667358221220e389808ceeb887593bc7e800bc962796e6519280370451afaf97f6c0fe6f60f064736f6c63430008210033",
    "sourcePath": "/home/senna/Web3/foundry-fund-me/src/FundMe.sol",
    "compiler": {
        "name": "solc",
        "version": "0.8.33+commit.64118f21"
    },
    "functionHashes": {
        "MINIMUM_USD()": "6b69a592",
        "cheaperWithdraw()": "be2693f0",
        "fund()": "b60d4288",
        "getAddressToAmountFunded(address)": "0343fb25",
        "getFunder(uint256)": "d7b4750c",
        "getOwner()": "893d20e8",
        "getPriceFeed()": "9e87a5cd",
        "getVersion()": "0d8e6e2c",
        "withdraw()": "3ccfd60b"
    },
    "gasEstimates": {
        "creation": {
            "codeDepositCost": "380800",
            "executionCost": "infinite",
            "totalCost": "infinite"
        },
        "external": {
            "MINIMUM_USD()": "219",
            "cheaperWithdraw()": "infinite",
            "fund()": "infinite",
            "getAddressToAmountFunded(address)": "2362",
            "getFunder(uint256)": "4677",
            "getOwner()": "infinite",
            "getPriceFeed()": "2390",
            "getVersion()": "infinite",
            "withdraw()": "infinite"
        }
    }
}